{
  "contractName": "TicketNFT",
  "abi": [
    {
      "inputs": [],
      "stateMutability": "nonpayable",
      "type": "constructor"
    },
    {
      "anonymous": false,
      "inputs": [
        {
          "indexed": true,
          "internalType": "address",
          "name": "account",
          "type": "address"
        },
        {
          "indexed": true,
          "internalType": "address",
          "name": "operator",
          "type": "address"
        },
        {
          "indexed": false,
          "internalType": "bool",
          "name": "approved",
          "type": "bool"
        }
      ],
      "name": "ApprovalForAll",
      "type": "event"
    },
    {
      "anonymous": false,
      "inputs": [
        {
          "indexed": true,
          "internalType": "address",
          "name": "operator",
          "type": "address"
        },
        {
          "indexed": true,
          "internalType": "address",
          "name": "from",
          "type": "address"
        },
        {
          "indexed": true,
          "internalType": "address",
          "name": "to",
          "type": "address"
        },
        {
          "indexed": false,
          "internalType": "uint256[]",
          "name": "ids",
          "type": "uint256[]"
        },
        {
          "indexed": false,
          "internalType": "uint256[]",
          "name": "values",
          "type": "uint256[]"
        }
      ],
      "name": "TransferBatch",
      "type": "event"
    },
    {
      "anonymous": false,
      "inputs": [
        {
          "indexed": true,
          "internalType": "address",
          "name": "operator",
          "type": "address"
        },
        {
          "indexed": true,
          "internalType": "address",
          "name": "from",
          "type": "address"
        },
        {
          "indexed": true,
          "internalType": "address",
          "name": "to",
          "type": "address"
        },
        {
          "indexed": false,
          "internalType": "uint256",
          "name": "id",
          "type": "uint256"
        },
        {
          "indexed": false,
          "internalType": "uint256",
          "name": "value",
          "type": "uint256"
        }
      ],
      "name": "TransferSingle",
      "type": "event"
    },
    {
      "anonymous": false,
      "inputs": [
        {
          "indexed": false,
          "internalType": "string",
          "name": "value",
          "type": "string"
        },
        {
          "indexed": true,
          "internalType": "uint256",
          "name": "id",
          "type": "uint256"
        }
      ],
      "name": "URI",
      "type": "event"
    },
    {
      "inputs": [
        {
          "internalType": "address",
          "name": "account",
          "type": "address"
        },
        {
          "internalType": "uint256",
          "name": "id",
          "type": "uint256"
        }
      ],
      "name": "balanceOf",
      "outputs": [
        {
          "internalType": "uint256",
          "name": "",
          "type": "uint256"
        }
      ],
      "stateMutability": "view",
      "type": "function",
      "constant": true
    },
    {
      "inputs": [
        {
          "internalType": "address[]",
          "name": "accounts",
          "type": "address[]"
        },
        {
          "internalType": "uint256[]",
          "name": "ids",
          "type": "uint256[]"
        }
      ],
      "name": "balanceOfBatch",
      "outputs": [
        {
          "internalType": "uint256[]",
          "name": "",
          "type": "uint256[]"
        }
      ],
      "stateMutability": "view",
      "type": "function",
      "constant": true
    },
    {
      "inputs": [],
      "name": "commission",
      "outputs": [
        {
          "internalType": "uint256",
          "name": "",
          "type": "uint256"
        }
      ],
      "stateMutability": "view",
      "type": "function",
      "constant": true
    },
    {
      "inputs": [],
      "name": "idCounter",
      "outputs": [
        {
          "internalType": "uint256",
          "name": "",
          "type": "uint256"
        }
      ],
      "stateMutability": "view",
      "type": "function",
      "constant": true
    },
    {
      "inputs": [
        {
          "internalType": "address",
          "name": "account",
          "type": "address"
        },
        {
          "internalType": "address",
          "name": "operator",
          "type": "address"
        }
      ],
      "name": "isApprovedForAll",
      "outputs": [
        {
          "internalType": "bool",
          "name": "",
          "type": "bool"
        }
      ],
      "stateMutability": "view",
      "type": "function",
      "constant": true
    },
    {
      "inputs": [
        {
          "internalType": "address",
          "name": "from",
          "type": "address"
        },
        {
          "internalType": "address",
          "name": "to",
          "type": "address"
        },
        {
          "internalType": "uint256[]",
          "name": "ids",
          "type": "uint256[]"
        },
        {
          "internalType": "uint256[]",
          "name": "amounts",
          "type": "uint256[]"
        },
        {
          "internalType": "bytes",
          "name": "data",
          "type": "bytes"
        }
      ],
      "name": "safeBatchTransferFrom",
      "outputs": [],
      "stateMutability": "nonpayable",
      "type": "function"
    },
    {
      "inputs": [
        {
          "internalType": "address",
          "name": "from",
          "type": "address"
        },
        {
          "internalType": "address",
          "name": "to",
          "type": "address"
        },
        {
          "internalType": "uint256",
          "name": "id",
          "type": "uint256"
        },
        {
          "internalType": "uint256",
          "name": "amount",
          "type": "uint256"
        },
        {
          "internalType": "bytes",
          "name": "data",
          "type": "bytes"
        }
      ],
      "name": "safeTransferFrom",
      "outputs": [],
      "stateMutability": "nonpayable",
      "type": "function"
    },
    {
      "inputs": [
        {
          "internalType": "address",
          "name": "operator",
          "type": "address"
        },
        {
          "internalType": "bool",
          "name": "approved",
          "type": "bool"
        }
      ],
      "name": "setApprovalForAll",
      "outputs": [],
      "stateMutability": "nonpayable",
      "type": "function"
    },
    {
      "inputs": [
        {
          "internalType": "bytes4",
          "name": "interfaceId",
          "type": "bytes4"
        }
      ],
      "name": "supportsInterface",
      "outputs": [
        {
          "internalType": "bool",
          "name": "",
          "type": "bool"
        }
      ],
      "stateMutability": "view",
      "type": "function",
      "constant": true
    },
    {
      "inputs": [
        {
          "internalType": "uint256",
          "name": "ticketSupply",
          "type": "uint256"
        },
        {
          "internalType": "uint256",
          "name": "price",
          "type": "uint256"
        },
        {
          "internalType": "uint256",
          "name": "eventDate",
          "type": "uint256"
        },
        {
          "internalType": "string",
          "name": "metadata",
          "type": "string"
        }
      ],
      "name": "mintTicket",
      "outputs": [
        {
          "internalType": "uint256",
          "name": "",
          "type": "uint256"
        }
      ],
      "stateMutability": "nonpayable",
      "type": "function"
    },
    {
      "inputs": [
        {
          "internalType": "address",
          "name": "from",
          "type": "address"
        },
        {
          "internalType": "address",
          "name": "to",
          "type": "address"
        },
        {
          "internalType": "uint256",
          "name": "id",
          "type": "uint256"
        },
        {
          "internalType": "uint256",
          "name": "amount",
          "type": "uint256"
        }
      ],
      "name": "transferTicket",
      "outputs": [],
      "stateMutability": "payable",
      "type": "function",
      "payable": true
    },
    {
      "inputs": [
        {
          "internalType": "uint256",
          "name": "listingPrice",
          "type": "uint256"
        },
        {
          "internalType": "uint256",
          "name": "id",
          "type": "uint256"
        }
      ],
      "name": "listTicket",
      "outputs": [
        {
          "internalType": "bool",
          "name": "",
          "type": "bool"
        }
      ],
      "stateMutability": "nonpayable",
      "type": "function"
    },
    {
      "inputs": [
        {
          "internalType": "uint256",
          "name": "id",
          "type": "uint256"
        }
      ],
      "name": "uri",
      "outputs": [
        {
          "internalType": "string",
          "name": "",
          "type": "string"
        }
      ],
      "stateMutability": "view",
      "type": "function",
      "constant": true
    },
    {
      "inputs": [],
      "name": "whitelistOrganiser",
      "outputs": [
        {
          "internalType": "bool",
          "name": "",
          "type": "bool"
        }
      ],
      "stateMutability": "nonpayable",
      "type": "function"
    },
    {
      "inputs": [],
      "name": "blacklistOrganiser",
      "outputs": [
        {
          "internalType": "bool",
          "name": "",
          "type": "bool"
        }
      ],
      "stateMutability": "nonpayable",
      "type": "function"
    }
  ],
  "bytecode": "0x608060405260196005553480156200001657600080fd5b506040518060400160405280600881526020017f68747470733a2f2f0000000000000000000000000000000000000000000000008152506200005e81620000a660201b60201c565b5033600460006101000a81548173ffffffffffffffffffffffffffffffffffffffff021916908373ffffffffffffffffffffffffffffffffffffffff160217905550620001d7565b8060029080519060200190620000be929190620000c2565b5050565b828054620000d09062000172565b90600052602060002090601f016020900481019282620000f4576000855562000140565b82601f106200010f57805160ff191683800117855562000140565b8280016001018555821562000140579182015b828111156200013f57825182559160200191906001019062000122565b5b5090506200014f919062000153565b5090565b5b808211156200016e57600081600090555060010162000154565b5090565b600060028204905060018216806200018b57607f821691505b60208210811415620001a257620001a1620001a8565b5b50919050565b7f4e487b7100000000000000000000000000000000000000000000000000000000600052602260045260246000fd5b6136c880620001e76000396000f3fe6080604052600436106100e75760003560e01c806354da1cca1161008a578063e985e9c511610059578063e985e9c51461030c578063eafcd61814610349578063eb08ab2814610386578063f242432a146103b1576100e7565b806354da1cca1461027157806356f8159c1461029c578063a22cb465146102b8578063e1489191146102e1576100e7565b80632eb2c2d6116100c65780632eb2c2d6146101a3578063305a905a146101cc57806344a5a925146102095780634e1273f414610234576100e7565b8062fdd58e146100ec57806301ffc9a7146101295780630e89341c14610166575b600080fd5b3480156100f857600080fd5b50610113600480360381019061010e9190612425565b6103da565b6040516101209190613102565b60405180910390f35b34801561013557600080fd5b50610150600480360381019061014b91906124cd565b6104a3565b60405161015d9190612ee5565b60405180910390f35b34801561017257600080fd5b5061018d6004803603810190610188919061251f565b610585565b60405161019a9190612f00565b60405180910390f35b3480156101af57600080fd5b506101ca60048036038101906101c59190612238565b6105cd565b005b3480156101d857600080fd5b506101f360048036038101906101ee9190612548565b61066e565b6040516102009190612ee5565b60405180910390f35b34801561021557600080fd5b5061021e61076a565b60405161022b9190612ee5565b60405180910390f35b34801561024057600080fd5b5061025b60048036038101906102569190612461565b61085b565b6040516102689190612e8c565b60405180910390f35b34801561027d57600080fd5b50610286610a0c565b6040516102939190612ee5565b60405180910390f35b6102b660048036038101906102b191906122f7565b610afd565b005b3480156102c457600080fd5b506102df60048036038101906102da91906123e9565b610de0565b005b3480156102ed57600080fd5b506102f6610f61565b6040516103039190613102565b60405180910390f35b34801561031857600080fd5b50610333600480360381019061032e91906121fc565b610f67565b6040516103409190612ee5565b60405180910390f35b34801561035557600080fd5b50610370600480360381019061036b9190612584565b610ffb565b60405161037d9190613102565b60405180910390f35b34801561039257600080fd5b5061039b61114e565b6040516103a89190613102565b60405180910390f35b3480156103bd57600080fd5b506103d860048036038101906103d3919061235a565b611154565b005b60008073ffffffffffffffffffffffffffffffffffffffff168373ffffffffffffffffffffffffffffffffffffffff16141561044b576040517f08c379a000000000000000000000000000000000000000000000000000000000815260040161044290612f82565b60405180910390fd5b60008083815260200190815260200160002060008473ffffffffffffffffffffffffffffffffffffffff1673ffffffffffffffffffffffffffffffffffffffff16815260200190815260200160002054905092915050565b60007fd9b67a26000000000000000000000000000000000000000000000000000000007bffffffffffffffffffffffffffffffffffffffffffffffffffffffff1916827bffffffffffffffffffffffffffffffffffffffffffffffffffffffff1916148061056e57507f0e89341c000000000000000000000000000000000000000000000000000000007bffffffffffffffffffffffffffffffffffffffffffffffffffffffff1916827bffffffffffffffffffffffffffffffffffffffffffffffffffffffff1916145b8061057e575061057d826111f5565b5b9050919050565b60606105908261125f565b600660008481526020019081526020016000206000016040516020016105b7929190612d9b565b6040516020818303038152906040529050919050565b6105d56112f3565b73ffffffffffffffffffffffffffffffffffffffff168573ffffffffffffffffffffffffffffffffffffffff16148061061b575061061a856106156112f3565b610f67565b5b61065a576040517f08c379a000000000000000000000000000000000000000000000000000000000815260040161065190613002565b60405180910390fd5b61066785858585856112fb565b5050505050565b600042600660008481526020019081526020016000206005015410156106ee57826006600084815260200190815260200160002060040160003373ffffffffffffffffffffffffffffffffffffffff1673ffffffffffffffffffffffffffffffffffffffff16815260200190815260200160002060070181905550610760565b60066000838152602001908152602001600020600101546006600084815260200190815260200160002060040160003373ffffffffffffffffffffffffffffffffffffffff1673ffffffffffffffffffffffffffffffffffffffff168152602001908152602001600020600701819055505b6001905092915050565b6000600460009054906101000a900473ffffffffffffffffffffffffffffffffffffffff1673ffffffffffffffffffffffffffffffffffffffff163373ffffffffffffffffffffffffffffffffffffffff16146107fc576040517f08c379a00000000000000000000000000000000000000000000000000000000081526004016107f390612f62565b60405180910390fd5b6000600760003373ffffffffffffffffffffffffffffffffffffffff1673ffffffffffffffffffffffffffffffffffffffff16815260200190815260200160002060006101000a81548160ff0219169083151502179055506000905090565b606081518351146108a1576040517f08c379a0000000000000000000000000000000000000000000000000000000008152600401610898906130a2565b60405180910390fd5b6000835167ffffffffffffffff8111156108e4577f4e487b7100000000000000000000000000000000000000000000000000000000600052604160045260246000fd5b6040519080825280602002602001820160405280156109125781602001602082028036833780820191505090505b50905060005b8451811015610a01576109ab85828151811061095d577f4e487b7100000000000000000000000000000000000000000000000000000000600052603260045260246000fd5b602002602001015185838151811061099e577f4e487b7100000000000000000000000000000000000000000000000000000000600052603260045260246000fd5b60200260200101516103da565b8282815181106109e4577f4e487b7100000000000000000000000000000000000000000000000000000000600052603260045260246000fd5b602002602001018181525050806109fa9061348c565b9050610918565b508091505092915050565b6000600460009054906101000a900473ffffffffffffffffffffffffffffffffffffffff1673ffffffffffffffffffffffffffffffffffffffff163373ffffffffffffffffffffffffffffffffffffffff1614610a9e576040517f08c379a0000000000000000000000000000000000000000000000000000000008152600401610a9590612f62565b60405180910390fd5b6001600760003373ffffffffffffffffffffffffffffffffffffffff1673ffffffffffffffffffffffffffffffffffffffff16815260200190815260200160002060006101000a81548160ff0219169083151502179055506001905090565b6001811015610b41576040517f08c379a0000000000000000000000000000000000000000000000000000000008152600401610b3890613062565b60405180910390fd5b806006600084815260200190815260200160002060040160008673ffffffffffffffffffffffffffffffffffffffff1673ffffffffffffffffffffffffffffffffffffffff168152602001908152602001600020600601541015610bda576040517f08c379a0000000000000000000000000000000000000000000000000000000008152600401610bd190613042565b60405180910390fd5b806006600084815260200190815260200160002060040160008573ffffffffffffffffffffffffffffffffffffffff1673ffffffffffffffffffffffffffffffffffffffff16815260200190815260200160002060070154610c3c9190613316565b8373ffffffffffffffffffffffffffffffffffffffff16311015610c95576040517f08c379a0000000000000000000000000000000000000000000000000000000008152600401610c8c90612fc2565b60405180910390fd5b806006600084815260200190815260200160002060040160008673ffffffffffffffffffffffffffffffffffffffff1673ffffffffffffffffffffffffffffffffffffffff16815260200190815260200160002060060154610cf79190613370565b6006600084815260200190815260200160002060040160008673ffffffffffffffffffffffffffffffffffffffff1673ffffffffffffffffffffffffffffffffffffffff16815260200190815260200160002060060181905550600060066000600354815260200190815260200160002060040160008573ffffffffffffffffffffffffffffffffffffffff1673ffffffffffffffffffffffffffffffffffffffff168152602001908152602001600020905081816006018190555060008160070181905550610dd9858585856040518060200160405280600081525061165b565b5050505050565b8173ffffffffffffffffffffffffffffffffffffffff16610dff6112f3565b73ffffffffffffffffffffffffffffffffffffffff161415610e56576040517f08c379a0000000000000000000000000000000000000000000000000000000008152600401610e4d90613082565b60405180910390fd5b8060016000610e636112f3565b73ffffffffffffffffffffffffffffffffffffffff1673ffffffffffffffffffffffffffffffffffffffff16815260200190815260200160002060008473ffffffffffffffffffffffffffffffffffffffff1673ffffffffffffffffffffffffffffffffffffffff16815260200190815260200160002060006101000a81548160ff0219169083151502179055508173ffffffffffffffffffffffffffffffffffffffff16610f106112f3565b73ffffffffffffffffffffffffffffffffffffffff167f17307eab39ab6107e8899845ad3d59bd9653f200f220920489ca2b5937696c3183604051610f559190612ee5565b60405180910390a35050565b60055481565b6000600160008473ffffffffffffffffffffffffffffffffffffffff1673ffffffffffffffffffffffffffffffffffffffff16815260200190815260200160002060008373ffffffffffffffffffffffffffffffffffffffff1673ffffffffffffffffffffffffffffffffffffffff16815260200190815260200160002060009054906101000a900460ff16905092915050565b6000600160035461100c91906132c0565b60038190555060008290506000600660006003548152602001908152602001600020905060405180602001604052806000815250816000019080519060200190611057929190611ef4565b50868160020181905550858160010181905550338160030160006101000a81548173ffffffffffffffffffffffffffffffffffffffff021916908373ffffffffffffffffffffffffffffffffffffffff160217905550848160050181905550600060066000600354815260200190815260200160002060040160003373ffffffffffffffffffffffffffffffffffffffff1673ffffffffffffffffffffffffffffffffffffffff168152602001908152602001600020905087816006018190555086816007018190555061113e336003548a604051806020016040528060008152506118dd565b6003549350505050949350505050565b60035481565b61115c6112f3565b73ffffffffffffffffffffffffffffffffffffffff168573ffffffffffffffffffffffffffffffffffffffff1614806111a257506111a18561119c6112f3565b610f67565b5b6111e1576040517f08c379a00000000000000000000000000000000000000000000000000000000081526004016111d890612fa2565b60405180910390fd5b6111ee858585858561165b565b5050505050565b60007f01ffc9a7000000000000000000000000000000000000000000000000000000007bffffffffffffffffffffffffffffffffffffffffffffffffffffffff1916827bffffffffffffffffffffffffffffffffffffffffffffffffffffffff1916149050919050565b60606002805461126e9061345a565b80601f016020809104026020016040519081016040528092919081815260200182805461129a9061345a565b80156112e75780601f106112bc576101008083540402835291602001916112e7565b820191906000526020600020905b8154815290600101906020018083116112ca57829003601f168201915b50505050509050919050565b600033905090565b815183511461133f576040517f08c379a0000000000000000000000000000000000000000000000000000000008152600401611336906130c2565b60405180910390fd5b600073ffffffffffffffffffffffffffffffffffffffff168473ffffffffffffffffffffffffffffffffffffffff1614156113af576040517f08c379a00000000000000000000000000000000000000000000000000000000081526004016113a690612fe2565b60405180910390fd5b60006113b96112f3565b90506113c9818787878787611a73565b60005b84518110156115c6576000858281518110611410577f4e487b7100000000000000000000000000000000000000000000000000000000600052603260045260246000fd5b602002602001015190506000858381518110611455577f4e487b7100000000000000000000000000000000000000000000000000000000600052603260045260246000fd5b60200260200101519050600080600084815260200190815260200160002060008b73ffffffffffffffffffffffffffffffffffffffff1673ffffffffffffffffffffffffffffffffffffffff168152602001908152602001600020549050818110156114f6576040517f08c379a00000000000000000000000000000000000000000000000000000000081526004016114ed90613022565b60405180910390fd5b81810360008085815260200190815260200160002060008c73ffffffffffffffffffffffffffffffffffffffff1673ffffffffffffffffffffffffffffffffffffffff168152602001908152602001600020819055508160008085815260200190815260200160002060008b73ffffffffffffffffffffffffffffffffffffffff1673ffffffffffffffffffffffffffffffffffffffff16815260200190815260200160002060008282546115ab91906132c0565b92505081905550505050806115bf9061348c565b90506113cc565b508473ffffffffffffffffffffffffffffffffffffffff168673ffffffffffffffffffffffffffffffffffffffff168273ffffffffffffffffffffffffffffffffffffffff167f4a39dc06d4c0dbc64b70af90fd698a233a518aa5d07e595d983b8c0526c8f7fb878760405161163d929190612eae565b60405180910390a4611653818787878787611a7b565b505050505050565b600073ffffffffffffffffffffffffffffffffffffffff168473ffffffffffffffffffffffffffffffffffffffff1614156116cb576040517f08c379a00000000000000000000000000000000000000000000000000000000081526004016116c290612fe2565b60405180910390fd5b60006116d56112f3565b90506116f58187876116e688611c4b565b6116ef88611c4b565b87611a73565b600080600086815260200190815260200160002060008873ffffffffffffffffffffffffffffffffffffffff1673ffffffffffffffffffffffffffffffffffffffff1681526020019081526020016000205490508381101561178c576040517f08c379a000000000000000000000000000000000000000000000000000000000815260040161178390613022565b60405180910390fd5b83810360008087815260200190815260200160002060008973ffffffffffffffffffffffffffffffffffffffff1673ffffffffffffffffffffffffffffffffffffffff168152602001908152602001600020819055508360008087815260200190815260200160002060008873ffffffffffffffffffffffffffffffffffffffff1673ffffffffffffffffffffffffffffffffffffffff168152602001908152602001600020600082825461184191906132c0565b925050819055508573ffffffffffffffffffffffffffffffffffffffff168773ffffffffffffffffffffffffffffffffffffffff168373ffffffffffffffffffffffffffffffffffffffff167fc3d58168c5ae7397731d063d5bbf3d657854427343f4c083240f7aacaa2d0f6288886040516118be92919061311d565b60405180910390a46118d4828888888888611d11565b50505050505050565b600073ffffffffffffffffffffffffffffffffffffffff168473ffffffffffffffffffffffffffffffffffffffff16141561194d576040517f08c379a0000000000000000000000000000000000000000000000000000000008152600401611944906130e2565b60405180910390fd5b60006119576112f3565b90506119788160008761196988611c4b565b61197288611c4b565b87611a73565b8260008086815260200190815260200160002060008773ffffffffffffffffffffffffffffffffffffffff1673ffffffffffffffffffffffffffffffffffffffff16815260200190815260200160002060008282546119d791906132c0565b925050819055508473ffffffffffffffffffffffffffffffffffffffff16600073ffffffffffffffffffffffffffffffffffffffff168273ffffffffffffffffffffffffffffffffffffffff167fc3d58168c5ae7397731d063d5bbf3d657854427343f4c083240f7aacaa2d0f628787604051611a5592919061311d565b60405180910390a4611a6c81600087878787611d11565b5050505050565b505050505050565b611a9a8473ffffffffffffffffffffffffffffffffffffffff16611ee1565b15611c43578373ffffffffffffffffffffffffffffffffffffffff1663bc197c8187878686866040518663ffffffff1660e01b8152600401611ae0959493929190612dca565b602060405180830381600087803b158015611afa57600080fd5b505af1925050508015611b2b57506040513d601f19601f82011682018060405250810190611b2891906124f6565b60015b611bba57611b37613580565b80611b425750611b7f565b806040517f08c379a0000000000000000000000000000000000000000000000000000000008152600401611b769190612f00565b60405180910390fd5b6040517f08c379a0000000000000000000000000000000000000000000000000000000008152600401611bb190612f22565b60405180910390fd5b63bc197c8160e01b7bffffffffffffffffffffffffffffffffffffffffffffffffffffffff1916817bffffffffffffffffffffffffffffffffffffffffffffffffffffffff191614611c41576040517f08c379a0000000000000000000000000000000000000000000000000000000008152600401611c3890612f42565b60405180910390fd5b505b505050505050565b60606000600167ffffffffffffffff811115611c90577f4e487b7100000000000000000000000000000000000000000000000000000000600052604160045260246000fd5b604051908082528060200260200182016040528015611cbe5781602001602082028036833780820191505090505b5090508281600081518110611cfc577f4e487b7100000000000000000000000000000000000000000000000000000000600052603260045260246000fd5b60200260200101818152505080915050919050565b611d308473ffffffffffffffffffffffffffffffffffffffff16611ee1565b15611ed9578373ffffffffffffffffffffffffffffffffffffffff1663f23a6e6187878686866040518663ffffffff1660e01b8152600401611d76959493929190612e32565b602060405180830381600087803b158015611d9057600080fd5b505af1925050508015611dc157506040513d601f19601f82011682018060405250810190611dbe91906124f6565b60015b611e5057611dcd613580565b80611dd85750611e15565b806040517f08c379a0000000000000000000000000000000000000000000000000000000008152600401611e0c9190612f00565b60405180910390fd5b6040517f08c379a0000000000000000000000000000000000000000000000000000000008152600401611e4790612f22565b60405180910390fd5b63f23a6e6160e01b7bffffffffffffffffffffffffffffffffffffffffffffffffffffffff1916817bffffffffffffffffffffffffffffffffffffffffffffffffffffffff191614611ed7576040517f08c379a0000000000000000000000000000000000000000000000000000000008152600401611ece90612f42565b60405180910390fd5b505b505050505050565b600080823b905060008111915050919050565b828054611f009061345a565b90600052602060002090601f016020900481019282611f225760008555611f69565b82601f10611f3b57805160ff1916838001178555611f69565b82800160010185558215611f69579182015b82811115611f68578251825591602001919060010190611f4d565b5b509050611f769190611f7a565b5090565b5b80821115611f93576000816000905550600101611f7b565b5090565b6000611faa611fa584613177565b613146565b90508083825260208201905082856020860282011115611fc957600080fd5b60005b85811015611ff95781611fdf88826120eb565b845260208401935060208301925050600181019050611fcc565b5050509392505050565b6000612016612011846131a3565b613146565b9050808382526020820190508285602086028201111561203557600080fd5b60005b85811015612065578161204b88826121e7565b845260208401935060208301925050600181019050612038565b5050509392505050565b600061208261207d846131cf565b613146565b90508281526020810184848401111561209a57600080fd5b6120a5848285613418565b509392505050565b60006120c06120bb846131ff565b613146565b9050828152602081018484840111156120d857600080fd5b6120e3848285613418565b509392505050565b6000813590506120fa81613636565b92915050565b600082601f83011261211157600080fd5b8135612121848260208601611f97565b91505092915050565b600082601f83011261213b57600080fd5b813561214b848260208601612003565b91505092915050565b6000813590506121638161364d565b92915050565b60008135905061217881613664565b92915050565b60008151905061218d81613664565b92915050565b600082601f8301126121a457600080fd5b81356121b484826020860161206f565b91505092915050565b600082601f8301126121ce57600080fd5b81356121de8482602086016120ad565b91505092915050565b6000813590506121f68161367b565b92915050565b6000806040838503121561220f57600080fd5b600061221d858286016120eb565b925050602061222e858286016120eb565b9150509250929050565b600080600080600060a0868803121561225057600080fd5b600061225e888289016120eb565b955050602061226f888289016120eb565b945050604086013567ffffffffffffffff81111561228c57600080fd5b6122988882890161212a565b935050606086013567ffffffffffffffff8111156122b557600080fd5b6122c18882890161212a565b925050608086013567ffffffffffffffff8111156122de57600080fd5b6122ea88828901612193565b9150509295509295909350565b6000806000806080858703121561230d57600080fd5b600061231b878288016120eb565b945050602061232c878288016120eb565b935050604061233d878288016121e7565b925050606061234e878288016121e7565b91505092959194509250565b600080600080600060a0868803121561237257600080fd5b6000612380888289016120eb565b9550506020612391888289016120eb565b94505060406123a2888289016121e7565b93505060606123b3888289016121e7565b925050608086013567ffffffffffffffff8111156123d057600080fd5b6123dc88828901612193565b9150509295509295909350565b600080604083850312156123fc57600080fd5b600061240a858286016120eb565b925050602061241b85828601612154565b9150509250929050565b6000806040838503121561243857600080fd5b6000612446858286016120eb565b9250506020612457858286016121e7565b9150509250929050565b6000806040838503121561247457600080fd5b600083013567ffffffffffffffff81111561248e57600080fd5b61249a85828601612100565b925050602083013567ffffffffffffffff8111156124b757600080fd5b6124c38582860161212a565b9150509250929050565b6000602082840312156124df57600080fd5b60006124ed84828501612169565b91505092915050565b60006020828403121561250857600080fd5b60006125168482850161217e565b91505092915050565b60006020828403121561253157600080fd5b600061253f848285016121e7565b91505092915050565b6000806040838503121561255b57600080fd5b6000612569858286016121e7565b925050602061257a858286016121e7565b9150509250929050565b6000806000806080858703121561259a57600080fd5b60006125a8878288016121e7565b94505060206125b9878288016121e7565b93505060406125ca878288016121e7565b925050606085013567ffffffffffffffff8111156125e757600080fd5b6125f3878288016121bd565b91505092959194509250565b600061260b8383612d7d565b60208301905092915050565b612620816133a4565b82525050565b600061263182613254565b61263b8185613282565b93506126468361322f565b8060005b8381101561267757815161265e88826125ff565b975061266983613275565b92505060018101905061264a565b5085935050505092915050565b61268d816133b6565b82525050565b600061269e8261325f565b6126a88185613293565b93506126b8818560208601613427565b6126c181613562565b840191505092915050565b60006126d78261326a565b6126e181856132a4565b93506126f1818560208601613427565b6126fa81613562565b840191505092915050565b60006127108261326a565b61271a81856132b5565b935061272a818560208601613427565b80840191505092915050565b600081546127438161345a565b61274d81866132b5565b945060018216600081146127685760018114612779576127ac565b60ff198316865281860193506127ac565b6127828561323f565b60005b838110156127a457815481890152600182019150602081019050612785565b838801955050505b50505092915050565b60006127c26034836132a4565b91507f455243313135353a207472616e7366657220746f206e6f6e204552433131353560008301527f526563656976657220696d706c656d656e7465720000000000000000000000006020830152604082019050919050565b60006128286028836132a4565b91507f455243313135353a204552433131353552656365697665722072656a6563746560008301527f6420746f6b656e730000000000000000000000000000000000000000000000006020830152604082019050919050565b600061288e6027836132a4565b91507f4f6e6c7920636f6e74726163744f776e65722063616e2063616c6c207468697360008301527f206d6574686f64000000000000000000000000000000000000000000000000006020830152604082019050919050565b60006128f4602b836132a4565b91507f455243313135353a2062616c616e636520717565727920666f7220746865207a60008301527f65726f20616464726573730000000000000000000000000000000000000000006020830152604082019050919050565b600061295a6029836132a4565b91507f455243313135353a2063616c6c6572206973206e6f74206f776e6572206e6f7260008301527f20617070726f76656400000000000000000000000000000000000000000000006020830152604082019050919050565b60006129c06014836132a4565b91507f496e73756666696369656e742062616c616e63650000000000000000000000006000830152602082019050919050565b6000612a00601d836132b5565b91507f2e697066732e647765622e6c696e6b2f6d657461646174612e6a736f6e0000006000830152601d82019050919050565b6000612a406025836132a4565b91507f455243313135353a207472616e7366657220746f20746865207a65726f20616460008301527f64726573730000000000000000000000000000000000000000000000000000006020830152604082019050919050565b6000612aa66032836132a4565b91507f455243313135353a207472616e736665722063616c6c6572206973206e6f742060008301527f6f776e6572206e6f7220617070726f76656400000000000000000000000000006020830152604082019050919050565b6000612b0c602a836132a4565b91507f455243313135353a20696e73756666696369656e742062616c616e636520666f60008301527f72207472616e73666572000000000000000000000000000000000000000000006020830152604082019050919050565b6000612b726013836132a4565b91507f496e73756666696369656e7420616d6f756e74000000000000000000000000006000830152602082019050919050565b6000612bb26014836132a4565b91507f43616e6e6f74206861766520616d6f756e7420300000000000000000000000006000830152602082019050919050565b6000612bf26029836132a4565b91507f455243313135353a2073657474696e6720617070726f76616c2073746174757360008301527f20666f722073656c6600000000000000000000000000000000000000000000006020830152604082019050919050565b6000612c586029836132a4565b91507f455243313135353a206163636f756e747320616e6420696473206c656e67746860008301527f206d69736d6174636800000000000000000000000000000000000000000000006020830152604082019050919050565b6000612cbe6028836132a4565b91507f455243313135353a2069647320616e6420616d6f756e7473206c656e6774682060008301527f6d69736d617463680000000000000000000000000000000000000000000000006020830152604082019050919050565b6000612d246021836132a4565b91507f455243313135353a206d696e7420746f20746865207a65726f2061646472657360008301527f73000000000000000000000000000000000000000000000000000000000000006020830152604082019050919050565b612d868161340e565b82525050565b612d958161340e565b82525050565b6000612da78285612705565b9150612db38284612736565b9150612dbe826129f3565b91508190509392505050565b600060a082019050612ddf6000830188612617565b612dec6020830187612617565b8181036040830152612dfe8186612626565b90508181036060830152612e128185612626565b90508181036080830152612e268184612693565b90509695505050505050565b600060a082019050612e476000830188612617565b612e546020830187612617565b612e616040830186612d8c565b612e6e6060830185612d8c565b8181036080830152612e808184612693565b90509695505050505050565b60006020820190508181036000830152612ea68184612626565b905092915050565b60006040820190508181036000830152612ec88185612626565b90508181036020830152612edc8184612626565b90509392505050565b6000602082019050612efa6000830184612684565b92915050565b60006020820190508181036000830152612f1a81846126cc565b905092915050565b60006020820190508181036000830152612f3b816127b5565b9050919050565b60006020820190508181036000830152612f5b8161281b565b9050919050565b60006020820190508181036000830152612f7b81612881565b9050919050565b60006020820190508181036000830152612f9b816128e7565b9050919050565b60006020820190508181036000830152612fbb8161294d565b9050919050565b60006020820190508181036000830152612fdb816129b3565b9050919050565b60006020820190508181036000830152612ffb81612a33565b9050919050565b6000602082019050818103600083015261301b81612a99565b9050919050565b6000602082019050818103600083015261303b81612aff565b9050919050565b6000602082019050818103600083015261305b81612b65565b9050919050565b6000602082019050818103600083015261307b81612ba5565b9050919050565b6000602082019050818103600083015261309b81612be5565b9050919050565b600060208201905081810360008301526130bb81612c4b565b9050919050565b600060208201905081810360008301526130db81612cb1565b9050919050565b600060208201905081810360008301526130fb81612d17565b9050919050565b60006020820190506131176000830184612d8c565b92915050565b60006040820190506131326000830185612d8c565b61313f6020830184612d8c565b9392505050565b6000604051905081810181811067ffffffffffffffff8211171561316d5761316c613533565b5b8060405250919050565b600067ffffffffffffffff82111561319257613191613533565b5b602082029050602081019050919050565b600067ffffffffffffffff8211156131be576131bd613533565b5b602082029050602081019050919050565b600067ffffffffffffffff8211156131ea576131e9613533565b5b601f19601f8301169050602081019050919050565b600067ffffffffffffffff82111561321a57613219613533565b5b601f19601f8301169050602081019050919050565b6000819050602082019050919050565b60008190508160005260206000209050919050565b600081519050919050565b600081519050919050565b600081519050919050565b6000602082019050919050565b600082825260208201905092915050565b600082825260208201905092915050565b600082825260208201905092915050565b600081905092915050565b60006132cb8261340e565b91506132d68361340e565b9250827fffffffffffffffffffffffffffffffffffffffffffffffffffffffffffffffff0382111561330b5761330a6134d5565b5b828201905092915050565b60006133218261340e565b915061332c8361340e565b9250817fffffffffffffffffffffffffffffffffffffffffffffffffffffffffffffffff0483118215151615613365576133646134d5565b5b828202905092915050565b600061337b8261340e565b91506133868361340e565b925082821015613399576133986134d5565b5b828203905092915050565b60006133af826133ee565b9050919050565b60008115159050919050565b60007fffffffff0000000000000000000000000000000000000000000000000000000082169050919050565b600073ffffffffffffffffffffffffffffffffffffffff82169050919050565b6000819050919050565b82818337600083830152505050565b60005b8381101561344557808201518184015260208101905061342a565b83811115613454576000848401525b50505050565b6000600282049050600182168061347257607f821691505b6020821081141561348657613485613504565b5b50919050565b60006134978261340e565b91507fffffffffffffffffffffffffffffffffffffffffffffffffffffffffffffffff8214156134ca576134c96134d5565b5b600182019050919050565b7f4e487b7100000000000000000000000000000000000000000000000000000000600052601160045260246000fd5b7f4e487b7100000000000000000000000000000000000000000000000000000000600052602260045260246000fd5b7f4e487b7100000000000000000000000000000000000000000000000000000000600052604160045260246000fd5b6000601f19601f8301169050919050565b60008160e01c9050919050565b600060443d101561359057613633565b60046000803e6135a1600051613573565b6308c379a081146135b25750613633565b60405160043d036004823e80513d602482011167ffffffffffffffff821117156135de57505050613633565b808201805167ffffffffffffffff8111156135fd575050505050613633565b8060208301013d850181111561361857505050505050613633565b61362182613562565b60208401016040528296505050505050505b90565b61363f816133a4565b811461364a57600080fd5b50565b613656816133b6565b811461366157600080fd5b50565b61366d816133c2565b811461367857600080fd5b50565b6136848161340e565b811461368f57600080fd5b5056fea2646970667358221220961759acdfcb7071535b97df67c1197f312350617cf4bc23454c49295969e8cf64736f6c63430008000033",
  "immutableReferences": {},
  "source": "// SPDX-License-Identifier: MIT\r\npragma solidity ^0.8.0;\r\n\r\nimport \"@openzeppelin/contracts/token/ERC1155/ERC1155.sol\";\r\n// import \"@openzeppelin/contracts/math/SafeMath.sol\";\r\n\r\ncontract TicketNFT is ERC1155 {\r\n    \r\n    enum TicketState { NOTLISTED, LISTED }\r\n\r\n    uint256 public idCounter;\r\n    address private contractOwner;\r\n    uint256 public commission = 25;\r\n\r\n    struct TicketStub {\r\n        // Other Attrs\r\n        Ticket ticket; // cid of metadata\r\n        uint256 supply; // buyers supply\r\n        uint256 price; // buyer's listed price\r\n    }\r\n    \r\n    struct Ticket {\r\n        // Other Attrs\r\n        string metadata;     // cid of metadata\r\n        uint256 price;\r\n        uint256 supply;     // TotalSupply of tickets\r\n        address payable owner;  // For commission to be paid too\r\n        mapping(address => TicketStub) owners;\r\n        uint256 eventDate;  // Determine if we can release price cap.\r\n    }\r\n\r\n    // tokenId => (owner => ticket)\r\n    mapping(uint256 => Ticket) private tickets;     // Store information about General information about Tickets\r\n    mapping(address => bool) private approvedOrganisers;  \r\n\r\n    // URL base of https://:cid.ipfs.dweb.link/:metadata.png\r\n    constructor() ERC1155(\"https://\") { \r\n        contractOwner = msg.sender;\r\n    }\r\n    \r\n    function mintTicket(\r\n        uint256 ticketSupply,\r\n        uint256 price,\r\n        uint256 eventDate,\r\n        string memory metadata\r\n    )  public returns (uint256) {\r\n        idCounter = idCounter + 1;\r\n\r\n        bytes memory md = bytes(metadata);\r\n\r\n        Ticket storage ticketInstances = tickets[idCounter];\r\n        ticketInstances.metadata = \"\";\r\n        ticketInstances.supply = ticketSupply;\r\n        ticketInstances.price = price;\r\n        ticketInstances.owner = payable(msg.sender);\r\n        ticketInstances.eventDate = eventDate;\r\n\r\n        TicketStub storage stubInstance = tickets[idCounter].owners[msg.sender];\r\n        stubInstance.supply = ticketSupply;\r\n        stubInstance.price = price;\r\n\r\n        _mint(msg.sender, idCounter, ticketSupply, \"\");  \r\n        return idCounter;      \r\n    }\r\n    \r\n    function transferTicket(\r\n        address from, // seller\r\n        address to,  // buyer\r\n        uint256 id,\r\n        uint256 amount\r\n    ) public payable  {\r\n        require(amount >= 1, \"Cannot have amount 0\");\r\n        require(tickets[id].owners[from].supply >= amount, \"Insufficient amount\");\r\n        require(to.balance >= tickets[id].owners[to].price * amount, \"Insufficient balance\");\r\n        \r\n        tickets[id].owners[from].supply = tickets[id].owners[from].supply - amount; // deduct amount\r\n        TicketStub storage stubInstance = tickets[idCounter].owners[to];\r\n        stubInstance.supply = amount;   // Given amount\r\n        stubInstance.price = 0; // Not for sale\r\n\r\n        // Best to use SafeMATH, maybe uses msg.value\r\n        // uint256 fees = (tickets[id].price * amount * commission) * (1/1000);\r\n        // address(tickets[id].owner).transfer(fees);\r\n        // address(from).transfer((tickets[id].price * amount) - fees);\r\n\r\n        _safeTransferFrom(from, to, id, amount, \"\");\r\n    }\r\n\r\n    function listTicket(uint256 listingPrice, uint256 id) public returns (bool) {\r\n        if(tickets[id].eventDate < block.timestamp) {   // Concert is over\r\n            tickets[id].owners[msg.sender].price = listingPrice;\r\n        } else {\r\n            tickets[id].owners[msg.sender].price = tickets[id].price;\r\n        }\r\n        return true;\r\n    }\r\n    \r\n    // Metadata for ticket\r\n    function uri(uint256 id) public view virtual override returns (string memory) {\r\n        return string(abi.encodePacked( super.uri(id), tickets[id].metadata, \".ipfs.dweb.link/metadata.json\" ));\r\n    }\r\n\r\n    /* For managing who can mint */\r\n    function whitelistOrganiser() public onlyOwner returns (bool) {\r\n        approvedOrganisers[msg.sender] = true;\r\n        return true;\r\n    }\r\n\r\n    function blacklistOrganiser() public onlyOwner returns (bool) {\r\n        approvedOrganisers[msg.sender] = false;\r\n        return false;\r\n    }\r\n    \r\n    modifier onlyApproved() {\r\n        require(approvedOrganisers[msg.sender] == true, \"Only agent can call this method\");\r\n        _;\r\n    }\r\n\r\n    /* Confirm Contract owner of ERC1155 */\r\n    modifier onlyOwner() {\r\n        require(msg.sender == contractOwner, \"Only contractOwner can call this method\");\r\n        _;\r\n    }\r\n}",
  "sourcePath": "C:\\Projects\\dTicket-Holon\\contracts\\TicketNFT.sol",
  "compiler": {
    "name": "solc",
    "version": "0.8.0+commit.c7dfd78e.Emscripten.clang"
  },
  "schemaVersion": "3.4.3",
  "updatedAt": "2021-11-24T16:01:12.503Z",
  "networkType": "ethereum",
  "devdoc": {
    "kind": "dev",
    "methods": {
      "balanceOf(address,uint256)": {
        "details": "See {IERC1155-balanceOf}. Requirements: - `account` cannot be the zero address."
      },
      "balanceOfBatch(address[],uint256[])": {
        "details": "See {IERC1155-balanceOfBatch}. Requirements: - `accounts` and `ids` must have the same length."
      },
      "isApprovedForAll(address,address)": {
        "details": "See {IERC1155-isApprovedForAll}."
      },
      "safeBatchTransferFrom(address,address,uint256[],uint256[],bytes)": {
        "details": "See {IERC1155-safeBatchTransferFrom}."
      },
      "safeTransferFrom(address,address,uint256,uint256,bytes)": {
        "details": "See {IERC1155-safeTransferFrom}."
      },
      "setApprovalForAll(address,bool)": {
        "details": "See {IERC1155-setApprovalForAll}."
      },
      "supportsInterface(bytes4)": {
        "details": "See {IERC165-supportsInterface}."
      }
    },
    "version": 1
  },
  "userdoc": {
    "kind": "user",
    "methods": {},
    "version": 1
  }
}